90500010000ABITANTI                      00001628388611027776
90960160001ABRAMIÈEVA ULICA              00001623093610125189
90610110001ABRAMOVA ULICA                00001621194010110084
90320170001ADAMIÈEVA CESTA               00001618579510094208
90320480001ADAMIÈEVA CESTA               00001618684810095433
90230100001ADAMIÈEVA ULICA               00001618149810090695
90851320001ADAMIÈEVA ULICA               00001622518510120438
90900060001ADAMIÈEVA ULICA               00001622857510123003
90700200001ADAMIÈEVA ULICA               00001625418510147719
90110030001ADAMIÈEVA ULICA               00001617514510085942
90610110003ADAMIÈEVA ULICA               00001620611310110084
90380150001ADAMIÈEVA ULICA               00001618862010097096
90610110002ADAMIÈ-LUNDROVO NABREŽJE      00001620080810110084
91340010000ADAMOVO                       00001629325311027628
90120010000ADERGAS                       00001628491211026630
90170010000ADLEŠIÈI                      00001627167511026699
90310010000ADRIJANCI                     00001629745311026842
90610110004AGROKOMBINATSKA CESTA         00001620422610110084
90700200002AHACLJEVA ULICA               00001625419310147719
91230150001AHLINOVA ULICA                00001621619410112893
91390610001AHTIKOVA ULICA                00001617872110086981
90440010000AJBA                          00001629882411026940
91650010000AJBELJ                        00001628193021427829
90700320001AJDOVA POT                    00001626339710147930
91080020001AJDOVA ULICA                  00001626697310149339
90040020001AJDOVSKA CESTA                00001623449410126568
90010010000AJDOVŠÈINA                    00001008393111026516
90610110005AJDOVŠÈINA                    00001620081610110084
90010000000AJDOVŠÈINA                    00001102651600000000
90840010000AJŠEVICA                      00001629883211027156
91690010015AKACIJEVA ULICA               00002429823010147433
91230150002ALBREHTOVA ULICA              00001621620810112893
90610110006ALEŠEVA ULICA                 00001620612110110084
90700270001ALEŠEVA ULICA                 00001625421510147808
90700200003ALEŠEVA ULICA                 00001625420710147719
90610110007ALEŠOVÈEVA ULICA              00001620613010110084
90610110008ALIÈEVA ULICA                 00001620588510110084
90400040001ALIETOVA ULICA                00001618910310097665
90380150002ALJAŽEV BREG                  00001618863810097096
90030010001ALJAŽEVA CESTA                00001623375710126533
91130870001ALJAŽEVA ULICA                00001624078810133629
90610110009ALJAŽEVA ULICA                00001620614810110084
90700200004ALJAŽEVA ULICA                00001625422310147719
90680350001ALJAŽEVA ULICA                00001784640010091438
90230430001ALJAŽEVA ULICA                00001618412810091993
90720030001ALJAŽEVA ULICA                00001618257510091195
90410070001ALJAŽEVA ULICA                00001619072110097827
91020170001ALJAŽEVA ULICA                00001623477010126878
92080020014ALJAŽEVA ULICA                00001624978510145171
91900380001ALJAŽEVA ULICA                00001625202610147310
90900060002ALMA VIVODA ULICA             00001622858310123003
91020170002ALPSKA CESTA                  00001623488510126878
90030010002ALPSKA CESTA                  00001623444310126533
90120020000AMBROŽ POD KRVAVCEM           00001628493911026630
90610110011AMBROŽEV TRG                  00001620082410110084
90390010000AMBRUS                        00001627656111026915
91230150032AMBRUŽEVA ULICA               00002428275910112893
90610111547AMERIŠKA ULICA                00002419156710110084
91040010000ANDOL                         00001630938911027296
90590210001ANDOVEC                       00001924182310108128
91730010000ANDRAŽ NAD POLZELO            00001632698421428035
90610110012ANDREAŠEVA ULICA              00001620615610110084
90780010000ANDREJCI                      00001629746111027130
91500010000ANDREJÈJE                     00001627029621427659
91530010000ANDRENCI                      00001628925621427683
90610110013ANDRIÆEVA ULICA               00001621548110110084
90851320109ANDRIJANIÈEVA CESTA           00001622679310120438
90440020000ANHOVO                        00001981553611026940
92130010000ANKARAN                       00001010131024063526
92130000000ANKARAN                       00002406352600000000
90500410001ANKARANSKA CESTA              00001632982710101743
90540010000ANOVEC                        00001628613311026982
90700200005ANTOLIÈIÈEVA ULICA            00001625423110147719
91690030001ANTOLIÈIÈEVA ULICA            00001626180710147751
91370080001ANTONOVA ULICA                00001656662410134919
91090440001ANZLOVA GORA                  00002000910110090016
90540020000ANŽE                          00001628614111026982
90960160002ANŽELOVA ULICA                00001623295510125189
90610110014ANŽURJEVA ULICA               00001620423410110084
90450010000APAÈE                         00001630529411027741
91950010000APAÈE                         00001627548421436437
91950000000APAÈE                         00002143643700000000
90290060001APAŠKA CESTA                  00001618471310092752
90610110015APIHOVA ULICA                 00001619784010110084
91190010000APNENIK                       00001630012811027458
91100010000APNENIK PRI BOŠTANJU          00001631034411027369
90540030000APNENIK PRI VELIKEM TRNU      00001628615011026982
90120030000APNO                          00001628494711026630
90700270002APOSTLOVA ULICA               00001626253610147808
90960160003ARBAJTERJEVA ULICA            00001623253010125189
90610110016ARCHINETOVA ULICA             00001620413710110084
91390010000ARCLIN                        00001626906911028080
91390610002ARCLINSKA CESTA               00001617873010086981
91300010000ARÈELCA                       00001632289011027580
92010040001ARÈONI                        00001979881010117992
90540040000ARDRO POD VELIKIM TRNOM       00001628616811026982
90540050000ARDRO PRI RAKI                00001628617611026982
91080160001AREŠKA CESTA                  00001626582910149193
90610111533ARGENTINSKA ULICA             00002416946410110084
90610110017ARHARJEVA CESTA               00001620797710110084
90710090001ARHARJEVA ULICA               00001621035810110688
91900010000ARJA VAS                      00001632699221428124
90500060001ARJOL                         00001619489110101352
90610110018ARKOVA ULICA                  00001620798510110084
90360090001ARKOVA ULICA                  00001618801810096405
90540060000ARMEŠKO                       00001628618411026982
91330010000ARNAÈE                        00001632554611027610
90610110019ARNIÈEVA ULICA                00001620589310110084
91900380002ARNIÈEVA ULICA                00001625203410147310
90960160190ARNIÈEVA ULICA                00001623303010125189
90090010000ARNOVO SELO                   00001626790211026605
90960160004ARNUŠEVA ULICA                00001623094410125189
90610110020ARTAÈEVA ULICA                00001620799310110084
90090020000ARTIÈE                        00001626792911026605
90390020000ARTIŽA VAS                    00001627657011026915
91300020000ARTMANJA VAS                  00001632290311027580
91100020000ARTO                          00001631035211027369
90350010000ARTVIŽE                       00001631171511027709
90900070001ARZE                          00001622942310123011
91240660001AŠKERÈEV TRG                  00001634099510139945
90570290001AŠKERÈEV TRG                  00001545248010106150
90570550001AŠKERÈEVA CESTA               00001611468510106494
91330240001AŠKERÈEVA CESTA               00001624803710144965
90610110021AŠKERÈEVA CESTA               00001620083210110084
91260090001AŠKERÈEVA CESTA               00001624774010144949
90320480002AŠKERÈEVA CESTA               00001618685610095433
90230070001AŠKERÈEVA ULICA               00001618040810090636
91130210001AŠKERÈEVA ULICA               00001623964010132908
90110030002AŠKERÈEVA ULICA               00001617515310085942
90851320002AŠKERÈEVA ULICA               00001622650510120438
90960160005AŠKERÈEVA ULICA               00001623095210125189
90800060001AŠKERÈEVA ULICA               00001622050710116368
90630340001AŠKERÈEVA ULICA               00001621711510113580
90900060003AŠKERÈEVA ULICA               00001622859110123003
90540850001AŠKERÈEVA ULICA               00001545119010104653
91900380003AŠKERÈEVA ULICA               00001625176310147310
90790090001AŠKERÈEVA ULICA               00001621902910115094
90430230001AŠKERÈEVA ULICA               00001619190610098319
90230100002AŠKERÈEVA ULICA               00001618067010090695
91130220001AŠKERÈEVA ULICA               00001623975510132916
91060240001AŠKERÈEVA ULICA               00001624454610139619
90400040002AŠKERÈEVA ULICA               00001618911110097665
90700200006AŠKERÈEVA ULICA               00001625424010147719
91200920001AŠKERÈEVA ULICA               00001624351510135982
90090120001AŠKERÈEVA ULICA               00001617373810084784
91140360001AŠKERÈEVA ULICA               00001624206310134692
91130870002AŠKERÈEVA ULICA               00001624120210133629
91080160002AŠKERÈEVA ULICA               00001626656610149193
90300040001ATTEMSOV TRG                  00001621873110114918
91110010000AVBER                         00001631172311027377
90440030000AVÈE                          00001629886711026940
90610110022AVÈINOVA ULICA                00001620072710110084
90590080001AVÉG                          00001924138610107903
90610110023AVGUSTINÈIÈEVA ULICA          00001620424210110084
91970010000AVGUŠTINE                     00001628619221436453
90460010000AVSA                          00001632146011026958
90610110024AVSEÈEVA ULICA                00001620426910110084
90610111557AVSTRIJSKA ULICA              00002421416810110084
90610110025AVŠIÈEVA CESTA                00001620011510110084
90851320003AVŠIÈEVA ULICA                00001622651310120438
90440090001AVŠKO                         00001622212710117496
90700200699AVTOMOBILSKA ULICA            00002400012510147719
90610110026AŽBETOVA ULICA                00001621195810110084
90700200007AŽBETOVA ULICA                00001625425810147719
90290020000AŽENSKI VRH                   00001627549211026826
90610110027AŽMANOVA ULICA                00001621587210110084
91690030002BABIÈEVA ULICA                00001626181510147751
90610111524BABIÈEVA ULICA                00002400179210110084
90500030000BABIÈI                        00001628389411027776
90630010000BABINCI                       00001629523011027857
90630340002BABINSKA CESTA                00001621715810113580
91240010000BABNA BRDA                    00001631940611027512
91300030000BABNA GORA                    00001632291111027580
91240020000BABNA GORA                    00001631941411027512
90210010000BABNA GORA                    00001629326111026745
90650020000BABNA POLICA                  00001627030011027865
91240030000BABNA REKA                    00001631942211027512
90520010000BABNI VRT                     00001628495511027784
90700200008BABNIKOVA ULICA               00001625426610147719
90110030003BABNO                         00001617761010085942
90650030000BABNO POLJE                   00001627031811027865
91230090001BABNOGORIŠKA CESTA            00001621176110111943
91230090002BABŠKOVA POT                  00001621177010111943
90380010000BAÈ                           00001627968411027717
90350020000BAÈ PRI MATERIJI              00001631173111027709
91280010000BAÈA PRI MODREJU              00001632147811027563
91280020000BAÈA PRI PODBRDU              00001632148611027563
90270010000BAÈNE                         00001631745411026800
90600650001BADJUROVA ULICA               00001323167210108969
90610111525BADJUROVA ULICA               00002400181410110084
90110030004BADOVINÈEVA ULICA             00001617516110085942
90730370001BADOVINÈEVA ULICA             00001621832410114578
90570290002BADOVINÈEVA ULICA             00001545270610106150
90851320004BAJÈEVA ULICA                 00001622652110120438
90440180001BAJTI                         00001622390510118263
90610110028BAJTOVA ULICA                 00001621196610110084
90800010000BAKOVCI                       00001011552311027148
90430230002BAKOVNIK                      00001619273210098319
90430230003BAKOVNIŠKA ULICA              00001619191410098319
90800060002BAKOVSKA ULICA                00001622051510116368
90390030000BAKRC                         00001627658811026915
90720030002BALANTIÈEVA ULICA             00001618243510091195
90700200009BALAŠEVA ULICA                00001625427410147719
90610110029BALINARSKA POT                00001620593110110084
90170020000BALKOVCI                      00001627168311026699
91310300001BALOS                         00001624764210144523
91340020000BANE                          00001629327011027628
90590170025BÁNFFYJEV TRG                 00001923667610108055
90370050001BANIJA                        00002398740610111692
91650020000BANJA LOKA                    00001628194821427829
90840030000BANJŠICE                      00001629887511027156
90590040001BANOV BREG                    00001924563210107857
91880010000BANOVCI                       00001629524821427977
91880030001BANOVSKA CESTA                00001621718210113873
90700200010BANTANOVA ULICA               00001625428210147719
90590010000BANUTA                        00001629009211027822
91301880001BARAGOV TRG                   00001624666210143861
90520140167BARAGOV TRG                   00001650630310102774
91930500001BARAGOVA CESTA                00001622740410121990
90610110010BARAGOVA ULICA                00001619958310110084
90720030003BARAGOVA ULICA                00001618272910091195
90070010000BARBANA                       00001629888311026583
90400010000BAREDI                        00001628035611026923
91350010000BARISLOVCI                    00001630530811028063
90500040000BARIZONI                      00001628390811027776
92080020001BARJANSKA CESTA               00001624964510145171
90610110030BARJANSKA CESTA               00001621245810110084
90370050002BARJANSKA ULICA               00002398742210111692
90840260001BARJE                         00001622271210117801
90190010000BARKA                         00001631174011026729
90710090002BARLETOVA CESTA               00001621036610110688
91940440001BARTLOVA ULICA                00001619764510109663
90610110031BARVARSKA STEZA               00001620085910110084
90500410002BARVARSKA ULICA               00001619497210101743
90700200011BARVARSKA ULICA               00001625430410147719
90950010000BAŠELJ                        00001628496311027237
90700200012BAŠEVA ULICA                  00001625431210147719
90840040000BATE                          00001629889111027156
90010020000BATUJE                        00001626721011026516
90700200013BAUKARTOVA ULICA              00001625433910147719
91340030000BAVDEK                        00001629328811027628
90610110032BAVDKOVA ULICA                00001620316510110084
90520140001BAVDKOVA ULICA                00001319516110102774
90060010000BAVŠICA                       00001632149411026575
90610110033BAZNIKOVA ULICA               00001621504010110084
90350140001BAZOVIŠKA CESTA               00001623802310131146
90380150003BAZOVIŠKA CESTA               00001618864610097096
91110480001BAZOVIŠKA CESTA               00001623815510131855
90500410003BAZOVIŠKA ULICA               00001619499910101743
90840260002BAZOVIŠKA ULICA               00001622273910117801
90900020001BAZOVIŠKA ULICA               00001622846010122961
90700200014BAZOVIŠKA ULICA               00001625434710147719
90610110034BAZOVIŠKA ULICA               00001620317310110084
90400040003BAZOVIŠKA ULICA               00001618912010097665
90430230004BAZOVIŠKA ULICA               00001619192210098319
91130870003BAZOVIŠKA ULICA               00001624079610133629
91280600001BAZOVIŠKA ULICA               00001624545310141478
91020340001BAZOVIŠKA ULICA               00001623509110127157
90360090002BAZOVIŠKA ULICA               00001618789510096405
90610110035BEBLERJEV TRG                 00001620412910110084
91360180001BEBLERJEVA ULICA              00001617326610084482
90500410004BEBLERJEVA ULICA              00001619681910101743
90360090003BEBLERJEVA ULICA              00001618832810096405
90700200015BEBLOVA ULICA                 00001625435510147719
90130010000BEÈ                           00001627032611026648
90130020000BEÈAJE                        00001627033411026648
90710090003BEÈANOVA ULICA                00001621037410110688
90170030000BEDENJ                        00001627169111026699
91470170001BEDRIH                        00001624403110138256
90610110036BEETHOVNOVA ULICA             00001620086710110084
90700270003BEGOVA ULICA                  00001625437110147808
90700200016BEGOVA ULICA                  00001625436310147719
91020010000BEGUNJE NA GORENJSKEM         00001630796311027270
90130030000BEGUNJE PRI CERKNICI          00001627034211026648
91310010001BEGUNJSKA CESTA               00001624712010144213
91020170003BEGUNJSKA CESTA               00001623478810126878
90520140002BEGUNJSKA ULICA               00001247863110102774
90350030000BEKA                          00001631175811027709
90010030000BELA                          00001626722811026516
90430010000BELA                          00001628073911027733
92060010000BELA CERKEV                   00001630013621433683
90430020000BELA PEÈ                      00001628074711027733
90800120003BELA ULICA                    00001946682519466779
90610110037BELAÈEVA ULICA                00001620801910110084
90700200017BELAÈEVA ULICA                00001625438010147719
91390610003BELAKOVA ULICA                00001617874810086981
91350020000BELAVŠEK                      00001630531611028063
90530010000BELCA                         00001628043711027792
90170040000BELÈJI VRH                    00001627170511026699
91260010000BELE VODE                     00001632555411027547
91170080001BELEHARJEVA CESTA             00001506953810103371
91990010000BELI GRIÈ                     00001632292021436470
91390020000BELI POTOK PRI FRANKOLOVEM    00001626907711028080
91240040000BELI POTOK PRI LEMBERGU       00001631944911027512
90210020000BELICA                        00001629329611026745
90880010000BELICA                        00001628195611027989
91780050001BELINGERJEVA ULICA            00001626695710149215
90610110038BELJAŠKA ULICA                00001620616410110084
91240050000BELO                          00001631945711027512
90710010000BELO                          00001629330011027890
90070020000BELO                          00001629890511026583
90851320005BELOKRANJSKA CESTA            00001622600910120438
90170140001BELOKRANJSKA CESTA            00001617972810088828
90610110039BELOKRANJSKA ULICA            00001619785810110084
90700200018BELOKRANJSKA ULICA            00001625439810147719
90900070002BELOKRIŠKA CESTA              00001622943110123011
90700200019BELORUSKA ULICA               00001625440110147719
90570010000BELOVO                        00001628811011027814
90950100001BELSKA CESTA                  00001428119310103134
91430010000BELSKI VRH                    00001630532411028101
90940010000BELSKO                        00001630456511027229
91750010000BELŠAK                        00001630896021428043
90960160006BELŠAKOVA ULICA               00001623294710125189
91300050000BELŠINJA VAS                  00001632293811027580
90020000000BELTINCI                      00001102652400000000
90020010000BELTINCI                      00001011553111026524
90500410005BELVEDER                      00001619561810101743
90500050000BELVEDUR                      00001628391611027776
91110480002BENÈIÈEVA ULICA               00001623816310131855
90500410006BENÈIÈEVA ULICA               00001619682710101743
91300060000BENEÈIJA                      00001632294611027580
90520190001BENEDIÈIÈEVA POT              00001408305710102901
90520140003BENEDIKOVA ULICA              00001247864010102774
91480010000BENEDIKT                      00001010694021427624
91480000000BENEDIKT                      00002142762400000000
91670030001BENEDIKTINSKA POT             00001626555110149142
91480010002BENEDIŠKI VRH                 00001900287010106940
91500020000BENETE                        00001627036921427659
90590020000BENICA                        00001629010611027822
91200920059BENJAMINOVA ULICA             00001668906810135982
90700200020BENKOVA ULICA                 00001625441010147719
90700200021BEOGRAJSKA ULICA              00001625442810147719
90700200022BERANIÈEVA ULICA              00001625443610147719
92020040001BERCETOVA ULICA               00001622807910122708
90730370002BERÈICE                       00001621812010114578
90610110040BERÈIÈEVA ULICA               00001620428510110084
90610110041BERÈONOVA POT                 00001620429310110084
90610110042BERDAJSOVA ULICA              00001620777210110084
90730010000BEREÈA VAS                    00001629618011027903
90710090004BERGANTOVA CESTA              00001621038210110688
91860010001BERGANTOVA ULICA              00001618385710091900
90700200023BERGANTOVA ULICA              00001625444410147719
90610111514BERGANTOVA ULICA              00001843724410110084
90700200024BERGLESOVA ULICA              00001625445210147719
90220010000BERIÈEVO                      00001629219211026753
91350030000BERINJAK                      00001630533211028063
90601630000BERINJEK                      00001636680311027024
90780020000BERKOVCI                      00001629747011027130
91660010000BERKOVCI                      00001629525621427837
91660020000BERKOVSKI PRELOGI             00001629526421427837
90110030005BERKSOVA ULICA                00001617517010085942
90900070003BERNARDINSKA REBER            00001622944010123011
91120120001BERNEKARJEVA ULICA            00001623903810132525
90110030006BERNEKERJEVA ULICA            00001617518810085942
90700200025BERNEKERJEVA ULICA            00001625447910147719
90610110043BERNEKERJEVA ULICA            00001620318110110084
90500410007BERNETIÈEVA ULICA             00001619679710101743
90610110044BERNIKOVA ULICA               00001620802710110084
90230100003BERNIKOVA ULICA               00001618096310090695
90710090005BERNIKOVA ULICA               00001621040410110688
90500060000BERTOKI                       00001010135211027776
92130010001BERTOKOVA ULICA               00001619460310101310
90520140004BERTONCLJEVA ULICA            00001319517010102774
90700200026BESEDNJAKOVA ULICA            00001625448710147719
90610010000BESNICA                       00001629228111027849
91400190001BETAJNOVA                     00001625017110145341
90190020000BETANJA                       00001631176611026729
90610111571BETETTOVA CESTA               00002421447810110084
90700200027BETETTOVA ULICA               00001625449510147719
90090120002BETETTOVA ULICA               00001617406810084784
90700200028BETNAVSKA CESTA               00001625450910147719
90520130001BETONOVA ULICA                00001229743210102766
91790010000BETONOVO                      00001630939721428060
90680470001BEUKOVA CESTA                 00001784684110091829
90440090002BEVÈARJI                      00001622213510117496
91330020000BEVÈE                         00001632556211027610
91400010000BEVKE                         00001632596111027652
90840260003BEVKOV TRG                    00001622330110117801
90610110045BEVKOVA CESTA                 00001619948610110084
90320170002BEVKOVA CESTA                 00001618647310094208
92000130001BEVKOVA ULICA                 00001624013310133475
91330240003BEVKOVA ULICA                 00001624855010144965
91240660002BEVKOVA ULICA                 00001634102910139945
91280600002BEVKOVA ULICA                 00001624584410141478
91900380004BEVKOVA ULICA                 00001625232810147310
91131230001BEVKOVA ULICA                 00001624162810134013
91130750001BEVKOVA ULICA                 00001624053210133483
90230430002BEVKOVA ULICA                 00001618448910091993
90960160007BEVKOVA ULICA                 00001623097910125189
90230070002BEVKOVA ULICA                 00001618041610090636
90140030001BEVKOVA ULICA                 00001618764010096260
90170140002BEVKOVA ULICA                 00001618029710088828
90190050001BEVKOVA ULICA                 00001623768010130620
91360180002BEVKOVA ULICA                 00001617353310084482
92130010002BEVKOVA ULICA                 00001619473510101310
90800060003BEVKOVA ULICA                 00001622124410116368
91020340002BEVKOVA ULICA                 00001623510510127157
90430230005BEVKOVA ULICA                 00001619194910098319
90110030007BEVKOVA ULICA                 00001617785710085942
90440050001BEVKOVA ULICA                 00001622179110117232
90400040004BEVKOVA ULICA                 00001618994410097665
90070100001BEVKOVA ULICA                 00001622193710117267
90090120003BEVKOVA ULICA                 00001617405010084784
90010010001BEVKOVA ULICA                 00001617323110083931
90600650002BEVKOVA ULICA                 00001619746710108969
90700200029BEVKOVA ULICA                 00001625451710147719
91290140001BEVŠKO                        00001624589510141800
91080010000BEZENA                        00001632953311027334
91080160003BEZENSKA POT                  00001626651510149193
90610110046BEZENŠKOVA ULICA              00001620319010110084
90110030008BEZENŠKOVA ULICA              00001617519610085942
90700200030BEZENŠKOVA ULICA              00001625452510147719
91390030000BEZENŠKOVO BUKOVJE            00001626908511028080
90880020000BEZGARJI                      00001628196411027989
90480470001BEZGOVA POT                   00001619444110099943
91240060000BEZGOVICA                     00001631946511027512
90880030000BEZGOVICA                     00001628197211027989
90260050001BEZGOVJE                      00001626473310148073
91140010000BEZINA                        00001631522211027407
90700270004BEZJAKOVA ULICA               00001626254410147808
90530040001BEZJE                         00001619158210097843
90970010000BEZNOVCI                      00001629748811028047
91390040000BEZOVICA                      00001626909311028080
90500070000BEZOVICA                      00001628392411027776
91440010000BEZOVJE NAD ZREÈAMI           00001631524911027687
91200010000BEZOVJE PRI ŠENTJURJU         00001631613011027466
90130040000BEZULJAK                      00001627037711026648
90610110047BEŽIGRAD                      00001619786610110084
90110030009BEŽIGRAJSKA CESTA             00001617520010085942
90500410008BEŽKOVA ULICA                 00001619637110101743
91300070000BIÈ                           00001632295411027580
90610110048BIÈEVJE                       00001621197410110084
90320010000BIÈJE                         00001627659611026869
90520140005BIÈKOVA ULICA                 00001247865810102774
90840260004BIDOVÈEVA ULICA               00001622274710117801
90900060004BIDOVÈEVA ULICA               00001622860510123003
90500410009BIDOVÈEVA ULICA               00001619638010101743
90380150004BILÈEVA POT                   00001618865410097096
90610110049BILEÈANSKA ULICA              00001620407210110084
91900380005BILGERJEVA ULICA              00001625204210147310
90070030000BILJANA                       00001629891311026583
90700200692BILJE                         00001900601810147719
90750010000BILJE                         00001629892111027911
91080160004BINDERJEVA ULICA              00001626583710149193
91220020000BINKELJ                       00001631746211027482
90850020000BIRÈNA VAS                    00001630014411027962
91100030000BIRNA VAS                     00001631037911027369
91160010000BISERJANE                     00001627550611027423
91400020000BISTRA                        00001632597011027652
90160010000BISTRA                        00001630897811026672
91310010002BISTRICA                      00001624713810144213
92110010000BISTRICA                      00001632296224063500
90510010000BISTRICA                      00001631947311026974
90820010000BISTRICA                      00001628497111027946
90601620000BISTRICA                      00001636668411027024
90170050000BISTRICA                      00001627171311026699
91080020000BISTRICA OB DRAVI             00001014933911027334
91490000000BISTRICA OB SOTLI             00002142763200000000
91490010000BISTRICA OB SOTLI             00001631948121427632
91310010000BISTRICA PRI TRŽIÈU           00001014421311027598
90430030000BISTRIÈICA                    00001628075511027733
90230160001BISTRIŠKA CESTA               00001618166810090890
90430850001BISTRIŠKA CESTA               00001619334810098980
90230100004BISTRIŠKA CESTA               00001618068810090695
92000130002BISTRIŠKA CESTA               00001624014110133475
90980020001BISTRIŠKA CESTA               00002423256510147484
90980060001BISTRIŠKA CESTA               00002423029510147760
90610110050BISTRIŠKA ULICA               00001621510410110084
90230250001BISTRIŠKA ULICA               00001618167610091365
90230260001BISTRIŠKA ULICA               00001618319910091381
91850010000BIŠ                           00001630535921427942
90230010000BIŠÈE                         00001627355411026761
91850020000BIŠEÈKI VRH                   00001630536721427942
91700010000BIŠKA VAS                     00001630015221427853
90610110051BITENÈEVA ULICA               00001620617210110084
90600010000BITIÈE                        00001629049111027024
91990020000BITNJA VAS                    00001632298921436470
90040010000BITNJE                        00001630797111026559
90710090006BIZANTOVA CESTA               00001621041210110688
90090120004BIZELJSKA CESTA               00001617474210084784
90090040001BIZELJSKA CESTA               00001617354110084695
90090030000BIZELJSKA VAS                 00001626793711026605
90090040000BIZELJSKO                     00001008469511026605
91130750002BIZJAKOVA ULICA               00001624028110133483
90610110052BIZJAKOVA ULICA               00001621198210110084
90610110053BIZJANOVA ULICA               00001620619910110084
90610110054BIZOVIŠKA CESTA               00001620430710110084
90610110055BIZOVŠKI ŠTRADON              00001621200810110084
90680010000BLAGOVICA                     00001627356211027873
91160020000BLAGUŠ                        00001627551411027423
91100040000BLANCA                        00001631038711027369
90610110056BLASNIKOVA ULICA              00001620059010110084
90610110057BLASOV BREG                   00001620060310110084
91040030000BLATE                         00001630941911027296
91400030000BLATNA BREZOVICA              00001632598811027652
90570020000BLATNI VRH                    00001628812811027814
91860010002BLATNICA                      00001618403910091900
91090010000BLATNIK PRI ÈRMOŠNJICAH       00001627172111027342
90170060000BLATNIK PRI ÈRNOMLJU          00001627173011026699
90700200703BLATNIKOVA ULICA              00002416456010147719
90090050000BLATNO                        00001626794511026605
91140020000BLATO                         00001631525711027407
91300100000BLATO                         00001632299711027580
91220510001BLAŽEVA ULICA                 00001624360410137918
90610110058BLAŽIÈEVA ULICA               00001620793410110084
90320020000BLEÈJI VRH                    00001627660011026869
90030000000BLED                          00001102653200000000
90030010000BLED                          00001012653311026532
90270190001BLEGOŠKA ULICA                00001635626310136776
90520140006BLEIWEISOVA CESTA             00001247870410102774
90610111576BLEIWEISOVA CESTA             00002421999210110084
91020170004BLEJSKA CESTA                 00001623479610126878
91310300002BLEJSKA CESTA                 00001624741310144523
90030200001BLEJSKA CESTA                 00001623565210127475
90410010000BLEJSKA DOBRAVA               00001628044511027725
90640090001BLEKOVA VAS                   00001621740910114179
90130050000BLOÈICE                       00001627038511026648
91420010000BLODNIK                       00001632626711027679
91500000000BLOKE                         00002142765900000000
90130060000BLOŠKA POLICA                 00001627039311026648
90700200031BLOUDKOVA ULICA               00001625453310147719
90600650003BOBEK                         00001619755610108969
90340010000BOBEN                         00001627884011026885
90610110059BOBENÈKOVA ULICA              00001621201610110084
90380150005BOBKOVA ULICA                 00001618901410097096
90520020000BOBOVEK                       00001628498011027784
91200020000BOBOVO PRI PONIKVI            00001631614811027466
91240070000BOBOVO PRI ŠMARJU             00001631949011027512
90610110060BOBROVA ULICA                 00001621541410110084
90500080000BOÈAJI                        00001628393211027776
90730370003BOÈKA                         00001621813810114578
91500030000BOÈKOVO                       00001627040721427659
90300010001BOÈNA                         00001621866910114837
90300010000BOÈNA                         00001011483711026834
90030020000BODEŠÈE                       00001630798011026532
90030140001BODEŠKA CESTA                 00001623550410127203
90630050000BODISLAVCI                    00001629527211027857
90420010000BODKOVCI                      00001630537511026931
90970020000BODONCI                       00001629749611028047
91220030000BODOVLJE                      00001631748911027482
91240080000BODREŽ                        00001631950311027512
90440040000BODREŽ                        00001629893011026940
91240090000BODRIŠNA VAS                  00001631951111027512
90390040000BOGA VAS                      00001627661811026915
90710090007BOGATAJEVA ULICA              00001621043910110688
91940010000BOGENŠPERK                    00001635838021428264
90730020000BOGINJA VAS                   00001629619811027903
90610110061BOGIŠIÆEVA ULICA              00001621202410110084
90610110062BOGNARJEVA POT                00001620803510110084
90720030076BOGNARJEVA ULICA              00001784991310091195
91990030000BOGNEÈA VAS                   00001632300421436470
91110020000BOGO                          00001631177411027377
90780030000BOGOJINA                      00001629750011027130
91440020000BOHARINA                      00001631526511027687
90040000000BOHINJ                        00001102655900000000
90610110063BOHINJÈEVA ULICA              00001620620210110084
90030030000BOHINJSKA BELA                00001630799811026532
90040020000BOHINJSKA BISTRICA            00001012656811026559
90040030000BOHINJSKA ÈEŠNJICA            00001630800511026559
90680470002BOHINJSKA ULICA               00001784686810091829
90541380001BOHORIÈEVA CESTA              00001545221810105234
90110030010BOHORIÈEVA ULICA              00001617521810085942
90090280001BOHORIÈEVA ULICA              00001617484010084954
90540850002BOHORIÈEVA ULICA              00001545120310104653
90700200032BOHORIÈEVA ULICA              00001625454110147719
90610110064BOHORIÈEVA ULICA              00001620087510110084
90090120005BOHORIÈEVA ULICA              00001617407610084784
90541380002BOHORSKA CESTA                00001545222610105234
91100810001BOHORSKA ULICA                00001623751510130034
91600010000BOHOVA                        00001632813821427756
91600120001BOHOVSKA CESTA                00001626439310148065
90700200033BOHOVSKA ULICA                00001625455010147719
90170070000BOJANCI                       00001627174811026699
90730030000BOJANJA VAS                   00001629620111027903
90390050000BOJANJI VRH                   00001627662611026915
90090060000BOJSNO                        00001626795311026605
91130010000BOJTINA                       00001631390411027393
90610110065BOKALOVA ULICA                00001620804310110084
90970030000BOKRAÈI                       00001629751811028047
90730040000BOLDRAŽ                       00001629621011027903
90690310000BOLEÈKA VAS                   00001630538311027083
91160030000BOLEHNEÈICI                   00001629529911027423
91200030000BOLETINA                      00001631615611027466
90610110066BOLETOVA ULICA                00001620768310110084
90700200034BOLFENŠKA ULICA               00001625456810147719
90700200035BOLGARSKA ULICA               00001625457610147719
90610110067BOLGARSKA ULICA               00001620088310110084
90230140001BOLKOVA ULICA                 00001618158710090849
90900060005BOLNIŠKA ULICA                00001622861310123003
90600020000BOLTIJA                       00001629050511027024
90900060006BONIFACIJEVA ULICA            00001622862110123003
90500090000BONINI                        00001628395911027776
91000010000BORAÈEVA                      00001627552211027253
91000140001BORAÈEVSKA CESTA              00001618533710093317
90700200036BORCEV ZA SEVERNO MEJO        00001625458410147719
91660030000BORECI                        00001629530221427837
90310020000BOREÈA                        00001629752611026842
90100010000BOREJCI                       00001629753411026613
90850040000BORIÈEVO                      00001630017911027962
90810030001BORISOVA ULICA                00001623309910126240
90460020000BORJANA                       00001632150811026958
91420020000BORJE                         00001632627511027679
91420030000BORJE PRI MLINŠAH             00001632628311027679
91440200001BORK                          00001624258610134986
90480470002BOROVA POT                    00001619445010099943
90230430003BOROVA ULICA                  00001618413610091993
90350100001BOROVA ULICA                  00001623790610130956
91690010016BOROVA ULICA                  00002429825610147433
90110030011BOROVA ULICA                  00001617801210085942
90700200037BOROVA VAS                    00001625459210147719
91420040000BOROVAK PRI PODKUMU           00001632629111027679
90600030000BOROVAK PRI POLŠNIKU          00001629051311027024
91680010000BOROVCI                       00001630539121428019
91860010042BOROVEC                       00001779965710091900
91340040000BOROVEC PRI KARLOVICI         00001629331811027628
90480030000BOROVEC PRI KOÈEVSKI REKI     00001628199911026966
91700200015BOROVJE                       00002017174010120403
90050000000BOROVNICA                     00001102656700000000
90050010000BOROVNICA                     00001014505811026567
90700200038BOROVNIKOVA ULICA             00001625460610147719
90610110068BOROVNIŠKA ULICA              00001621511210110084
91420240001BOROVNIŠKO NASELJE            00001625112710145643
90800060004BOROVNJAKOVA ULICA            00001622052310116368
90570550002BOROVO                        00001611469310106494
90530040002BOROVŠKA CESTA                00001619160410097843
90610110069BORSETOVA ULICA               00001621203210110084
90730050000BORŠT                         00001629622811027903
90090070000BORŠT                         00001626796111026605
90500100000BORŠT                         00001628396711027776
91930010000BORŠT PRI DVORU               00001630018721427993
90080010001BORŠTNARJEVA POT              00001621120610111242
90610110070BORŠTNIKOV TRG                00001620089110110084
90840160002BORŠTNIKOVA ULICA             00001622244510117607
90700200039BORŠTNIKOVA ULICA             00001625461410147719
90090120006BORŠTNIKOVA ULICA             00001617408410084784
90610110071BORUTOVA ULICA                00001619787410110084
90880040000BOSLJIVA LOKA                 00001628200611027989
90500410010BOŠADRAGA                     00001619500610101743
90500110000BOŠAMARIN                     00001628397511027776
90500870001BOŠKARJI                      00001119853810102081
90090040002BOŠT                          00001617355010084695
91100050000BOŠTANJ                       00001631039511027369
91340050000BOŠTETJE                      00001629332611027628
91020170005BOŠTJANOVA ULICA              00001623480010126878
91200040000BOTRIÈNICA                    00001631616411027466
90060000000BOVEC                         00001102657500000000
90060020000BOVEC                         00001014044711026575
91390050000BOVŠE                         00001626910711028080
90730060000BOŽAKOVO                      00001629623611027903
90730070000BOŽIÈ VRH                     00001629624411027903
90500410011BOŽIÈEVA ULICA                00001619501410101743
90610111562BOŽIÈEVA ULICA                00002421427310110084
91690030003BOŽIÈEVA ULICA                00001626182310147751
90110030012BOŽIÈEVA ULICA                00001617522610085942
91710010000BOŽJE                         00001631391221427861
91330240004BRAÈIÈEVA CESTA               00001624804510144965
91131230002BRAÈIÈEVA ULICA               00001624163610134013
90130090001BRAÈIÈEVA ULICA               00001617926410087287
90480470003BRAÈIÈEVA ULICA               00001619376310099943
90541380003BRAÈIÈEVA ULICA               00001545223410105234
90090080000BRAÈNA VAS                    00001626797011026605
90610110072BRAJNIKOVA ULICA              00001620749710110084
90840050000BRANIK                        00001629894811027156
90610110073BRANKOVA ULICA                00001619788210110084
91340060000BRANKOVO                      00001629333411027628
90630070000BRANOSLAVCI                   00001629532911027857
91510000000BRASLOVÈE                     00002142766700000000
91510010000BRASLOVÈE                     00001632700021427667
90610110074BRATINOVA ULICA               00001619790410110084
90240010000BRATISLAVCI                   00001630540511026770
90610110075BRATISLAVSKA CESTA            00001620582610110084
90390060000BRATNICE                      00001627663411026915
90020020000BRATONCI                      00001629754211026524
92050010000BRATONEÈICE                   00001630361521433675
90610110076BRATOV ÈEBULJEV ULICA         00001619791210110084
90610110077BRATOV JAKOPIÈEV ULICA        00001619793910110084
90610110078BRATOV KUNOVARJEV ULICA       00001619794710110084
90630340003BRATOV PIHLAR ULICA           00001621663110113580
90610110079BRATOVŠEVA PLOŠÈAD            00001619953210110084
91830010001BRATUŽEVA ULICA               00001622362010118166
90610110080BRAVNIÈARJEVA ULICA           00001621021810110084
90380020000BRCE                          00001627969211027717
90070000000BRDA                          00001102658300000000
91120010000BRDA                          00001631355611027385
91020020000BRDA                          00001630801311027270
90170080000BRDARCI                       00001627175611026699
91390060000BRDCE                         00001626911511028080
90340020000BRDCE                         00001627885811026885
91550010000BRDCE NAD DOBRNO              00001626912321427705
90070040000BRDICE PRI KOŽBANI            00001629895611026583
90070050000BRDICE PRI NEBLEM             00001629896411026583
91030020000BRDINJE                       00001630898611027288
90610110081BRDNIKOVA ULICA               00001621205910110084
90830010000BRDO                          00001629744511027954
90230020000BRDO                          00001627358911026761
90440090003BRDO                          00001622214310117496
90060020001BRDO                          00001624511910140447
90840060000BRDO                          00001629897211027156
91200050000BRDO                          00001631617211027466
91140030000BRDO                          00001631527311027407
91310020000BRDO                          00001632523611027598
90680020000BRDO PRI LUKOVICI             00001627359711027873
90270020000BREBOVNICA                    00001631749711026800
90851320195BRECKERFELDOVA ULICA          00002016045410120438
91240100000BRECLJEVO                     00001631952011027512
90690010000BREG                          00001630541311027083
90740010000BREG                          00001630899411027105
90110030013BREG                          00001617523410085942
90610110082BREG                          00001620090510110084
91100060000BREG                          00001631040911027369
91440200002BREG                          00001624259410134986
92020040002BREG                          00001622803610122708
91280600003BREG                          00001624546110141478
91920010000BREG                          00001628045321428116
90851320006BREG                          00001622519310120438
90840160003BREG                          00001622243710117607
91930500002BREG                          00001622733110121990
91310030000BREG OB BISTRICI              00001632524411027598
90950020000BREG OB KOKRI                 00001628499811027237
90520030000BREG OB SAVI                  00001628500511027784
90050020000BREG PRI BOROVNICI            00001632599611026567
90390070000BREG PRI DOBU                 00001627664211026915
90070060000BREG PRI GOLEM BRDU           00001629899911026583
90480040000BREG PRI KOÈEVJU              00001628201411026966
91640010000BREG PRI KOMENDI              00001628076321427802
91140040000BREG PRI KONJICAH             00001631528111027407
90600040000BREG PRI LITIJI               00001636712511027024
91730020000BREG PRI POLZELI              00001014621621428035
91040040000BREG PRI RIBNICI NA DOL.      00001630942711027296
90170090000BREG PRI SINJEM VRHU          00001627176411026699
90390080000BREG PRI TEMENICI             00001627666911026915
90390090000BREG PRI ZAGRADCU             00001627667711026915
90730370004BREG REVOLUCIJE               00001621814610114578
91690030004BREGANTOVA ULICA              00001626183110147751
90610110083BREGARJEVA ULICA              00001620622910110084
90540080000BREGE                         00001628620611026982
90460030000BREGINJ                       00001632151611026958
90230100005BREJÈEVA ULICA                00001618069610090695
90610110084BREJÈEVA ULICA                00001620091310110084
91470010000BREKOVICE                     00001631751911027695
91530020000BRENGOVA                      00001628927221427683
90870020000BRESNICA                      00001630362311027172
90370010000BREST                         00001629334211026907
90540090000BRESTANICA                    00001010382711026982
90700020000BRESTERNICA                   00001014737911027881
90700020001BRESTERNIŠKA GRABA            00001625239510147379
90700020002BRESTERNIŠKA ULICA            00001625240910147379
90700020003BRESTERNIŠKI VRH              00001625241710147379
90070070000BRESTJE                       00001629900611026583
90480470004BRESTOVA POT                  00001619446810099943
90130090002BRESTOVA ULICA                00001617917510087287
91060010000BRESTOVEC                     00001631953811027326
90490010000BRESTOVICA PRI KOMNU          00001631178211027768
91110030000BRESTOVICA PRI POVIRJU        00001631180411027377
91060240002BRESTOVŠKA CESTA              00001624483010139619
91730020001BREŠKA CESTA                  00002124127010146216
90950100002BREŠKA POT                    00001454795910103134
91190020000BREŠKA VAS                    00001630019511027458
91300120000BREZA                         00001632301211027580
91370010000BREZEN                        00001631529011028071
91700200014BREZENCE                      00002017172310120403
90090120007BREZINA                       00001617409210084784
90540870001BREZINSKA POT                 00001545195510104670
91690030060BREZJANSKA ULICA              00002417819610147751
91020030000BREZJE                        00001630802111027270
90790010000BREZJE                        00001629681311027920
90780170001BREZJE                        00001622035310116325
91101170000BREZJE                        00002055744311027369
91160040000BREZJE                        00001627554911027423
90850060000BREZJE                        00001630020911027962
90851320007BREZJE                        00001622604110120438
91420050000BREZJE                        00001632630511027679
90130070000BREZJE                        00001627041511026648
90430050000BREZJE NAD KAMNIKOM           00001628077111027733
91200060000BREZJE OB SLOMU               00001631619911027466
90940020000BREZJE POD NANOSOM            00001630457311027229
90090090000BREZJE PRI BOJSNEM            00001626799611026605
91540010000BREZJE PRI DOBJEM             00001631620221427691
90210030000BREZJE PRI DOBROVI            00001629336911026745
90230030000BREZJE PRI DOBU               00001627361911026761
90540100000BREZJE PRI DOVŠKEM            00001628621411026982
90320030000BREZJE PRI GROSUPLJEM         00001627668511026869
90600050000BREZJE PRI KUMPOLJU           00001629052111027024
91240110000BREZJE PRI LEKMARJU           00001631954611027512
90610020000BREZJE PRI LIPOGLAVU          00001629229011027849
91140050000BREZJE PRI LOÈAH              00001631530311027407
91710020000BREZJE PRI OPLOTNICI          00001631393921427861
91060020000BREZJE PRI PODPLATU           00001631955411027326
92000010000BREZJE PRI POLJÈANAH          00001631394721436488
90540110000BREZJE PRI RAKI               00001628622211026982
91090020000BREZJE PRI ROŽNEM DOLU        00001627177211027342
90540120000BREZJE PRI SENUŠAH            00001628624911026982
91130050000BREZJE PRI SLOV. BISTRICI     00001631395511027393
91190030000BREZJE PRI ŠENTJERNEJU        00001630021711027458
91990040000BREZJE PRI TREBELNEM          00001632303921436470
91310040000BREZJE PRI TRŽIÈU             00001632525211027598
90090100000BREZJE PRI VELIKI DOLINI      00001626800311026605
91090030000BREZJE PRI VINJEM VRHU        00001627179911027342
90540130000BREZJE V PODBOÈJU             00001628625711026982
91010010000BREZNI VRH                    00001630753011027261
91750020000BREZNICA                      00001630900121428043
91920020000BREZNICA                      00001628046121428116
91220040000BREZNICA POD LUBNIKOM         00001631752711027482
91470020000BREZNICA PRI ŽIREH            00001631753511027695
90170100000BREZNIK                       00001627180211026699
91420060000BREZNIK                       00001632631311027679
91480010001BREZNIKOVA CESTA              00001900285310106940
90230250002BREZNIKOVA CESTA              00001618293110091365
90230160002BREZNIKOVA CESTA              00001618168410090890
90230100006BREZNIKOVA ULICA              00001618146310090695
90610110085BREZNIKOVA ULICA              00001620805110110084
90700200040BREZNIKOVA ULICA              00001625462210147719
90570030000BREZNO                        00001628814411027814
90930010000BREZNO                        00001630754811028012
90940210065BREZOV DREVORED               00001714763310123488
90110010000BREZOVA                       00001626913111026621
90480470005BREZOVA POT                   00001619447610099943
91090040000BREZOVA REBER                 00001627182911027342
91930020000BREZOVA REBER PRI DVORU       00001630022521427993
90230100007BREZOVA ULICA                 00001618153610090695
90110030014BREZOVA ULICA                 00001617803910085942
91860010003BREZOVCE                      00001617283910091900
90240020000BREZOVCI                      00001630542111026770
90970040000BREZOVCI                      00001629756911028047
90980060002BREZOVEC                      00002423031710147760
91620010001BREZOVEC                      00002393702610111650
91960010000BREZOVEC                      00001630543021436445
90590030000BREZOVEC - DEL                00001629011411027822
90920020000BREZOVEC PRI POLJU            00001631956211027202
91070010000BREZOVEC PRI ROGATCU          00001631958911027300
90390100000BREZOVI DOL                   00001627669311026915
90080000000BREZOVICA                     00001102659100000000
91870010000BREZOVICA                     00001629012221428094
90230320001BREZOVICA                     00001779941010091551
92060020000BREZOVICA                     00001630023321433683
91020040000BREZOVICA                     00001630803011027270
90350040000BREZOVICA                     00001631181211027709
90090110000BREZOVICA NA BIZELJSKEM       00001626801111026605
90050030000BREZOVICA PRI BOROVNICI       00001632600311026567
91090050000BREZOVICA PRI ÈRMOŠNJICAH     00001627183711027342
90230040000BREZOVICA PRI DOBU            00001627362711026761
90500120000BREZOVICA PRI GRADINU         00001628398311027776
90080010000BREZOVICA PRI LJUBLJANI       00001011124211026591
90710020000BREZOVICA PRI MEDVODAH        00001629266411027890
90730080000BREZOVICA PRI METLIKI         00001629625211027903
92120020000BREZOVICA PRI MIRNI           00001632304724063518
90480050000BREZOVICA PRI PREDGRADU       00001628202211026966
90850090000BREZOVICA PRI STOPIÈAH        00001630024111027962
91990050000BREZOVICA PRI TREBELNEM       00001632305521436470
90680030000BREZOVICA PRI ZLATEM POLJU    00001627363511027873
90540140000BREZOVICA V PODBOÈJU          00001628626511026982
90080010002BREZOVIŠKA CESTA              00001621122210111242
90070080000BREZOVK                       00001629901411026583
91390610004BREZOVNIKOVA ULICA            00001617875610086981
91310130001BREZOVO                       00001632984310144353
91100070000BREZOVO                       00001631041711027369
90600060000BREZOVO                       00001629053011027024
90350050000BREZOVO BRDO                  00001631183911027709
90540150000BREZOVSKA GORA                00001628627311026982
90980010000BREZULA                       00001632814611027245
91040050000BREŽE                         00001630943511027296
90190030000BREŽEC PRI DIVAÈI             00001631184711026729
90500130000BREŽEC PRI PODGORJU           00001628399111027776
90090120000BREŽICE                       00001008478411026605
90090000000BREŽICE                       00001102660500000000
91280600004BREŽIÈ                        00001624547010141478
90080010003BREŽNA POT                    00001621124910111242
90600070000BRGLEZ                        00001629054811027024
90610040001BRGLEZOV ŠTRADON              00001621157510111323
90500140000BRIÈ                          00001628400911027776
91650030000BRIGA                         00001628204921427829
91400180001BRIGADIRSKA CESTA             00001625000710145333
90230460001BRIGADIRSKA ULICA             00001618456010092167
90610110086BRILEJEVA ULICA               00001620979110110084
90110030015BRINARJEVA ULICA              00001617524210085942
92110020000BRINJE                        00001632306324063500
90851320008BRINJE                        00001622653010120438
90220020000BRINJE                        00001629220611026753
90320170003BRINJE CESTA I                00001618580910094208
90320170004BRINJE CESTA II               00001618581710094208
91440200003BRINJEVA GORA                 00001624260810134986
90480470006BRINOVA POT                   00001619448410099943
91040060000BRINOVŠÈICA                   00001630944311027296
91730040001BRINSKA CESTA                 00002124102410146593
90380150006BRINŠKOVA ULICA               00001618902210097096
90430060000BRIŠE                         00001628078011027733
91420070000BRIŠE                         00001632632111027679
90210040000BRIŠE PRI POLHOVEM GRADCU     00001629337711026745
90520040000BRITOF                        00001628501311027784
90440180002BRITOF                        00001622391310118263
90010040000BRJE                          00001626723611026516
90490020000BRJE PRI KOMNU                00001631185511027768
91110040000BRJE PRI KOPRIVI              00001631186311027377
91110480003BRKINÈEVA ULICA               00001623817110131855
90350140002BRKINSKA ULICA                00001623803110131146
90400040005BRKINSKA ULICA                00001618913810097665
90500410012BRKINSKA ULICA                00001619502210101743
90540160000BRLOG                         00001628628111026982
91340070000BRLOG - DEL                   00001629338511027628
91790020000BRLOG - DEL                   00001630945121428060
90700200041BRNÈIÈEVA ULICA               00001625464910147719
92040050001BRNÈIÈEVA ULICA               00001611527410107105
90610110087BRNÈIÈEVA ULICA               00001620039510110084
90340030000BRNICA                        00001627886611026885
91900020000BRNICA                        00001632702621428124
91380140001BRNIŠKA CESTA                 00001621096010111013
90040040000BROD                          00001630804811026559
90640090002BROD                          00001621741710114179
90851320009BROD                          00001622585110120438
90540170000BROD V PODBOÈJU               00001628629011026982
90610110088BRODARJEV TRG                 00001620416110110084
90110030016BRODARJEVA ULICA              00001617799710085942
90800030001BRODARSKA ULICA               00001622022110116082
90600650004BRODARSKA ULICA               00001090842610108969
91890010000BRODE                         00001632703421428108
91220050000BRODE                         00001631754311027482
91860010004BRODIŠÈE                      00001618404710091900
90570040000BRODNICE                      00001628815211027814
90610110089BRODSKA CESTA                 00001620806010110084
90520450001BRSC                          00001748879110103622
91650040000BRSNIK                        00001628205721427829
90960160008BRSTJE                        00001623236010125189
90570050000BRSTNIK                       00001628817911027814
91090060000BRSTOVEC                      00001627184511027342
90570060000BRSTOVNICA                    00001628818711027814
90680040000BRŠLENOVICA                   00001627364311027873
90480470007BRŠLJANOVA POT                00001619449210099943
90851320010BRŠLJIN                       00001622589410120438
90200010000BRUHANJA VAS                  00001627670711026737
91990060000BRUNA VAS                     00001632307121436470
90990010000BRUNK                         00001628819511028055
91280600005BRUNOV DREVORED               00001624548810141478
90990020000BRUNŠKA GORA                  00001628820911028055
91150010000BRUNŠVIK                      00001632815411027415
90320040000BRVACE                        00001627671511026869
90090130000BRVI                          00001626802011026605
90780170002BRZINŠÈEK                     00001622036110116325
90500640001BRŽANI                        00001619687810101999
90430070000BUÈ                           00001628079811027733
91190460016BUÈARJEVA CESTA               00002014974410121299
91230150003BUÈARJEVA ULICA               00001621621610112893
90510020000BUÈE                          00001631959711026974
91660040000BUÈEÈOVCI                     00001629533721427837
90540180000BUÈERCA                       00001628630311026982
91210010000BUÈKA                         00001631042511027474
90630090000BUÈKOVCI                      00001629534511027857
90010050000BUDANJE                       00001626724411026516
91930030000BUDGANJA VAS                  00001630025021427993
90500410013BUDIÈINOVA ULICA              00001619504910101743
90900060007BUDIÈINOVA ULICA              00001622863010123003
90840070000BUDIHNI                       00001629902211027156
90330010000BUDINCI                       00001629757711026877
91100080000BUDNA VAS                     00001631043311027369
91080160005BUHMAJSTROVA ULICA            00001626584510149193
90910010000BUJE                          00001630458111028004
90090140000BUKOŠEK                       00001626803811026605
90270730000BUKOV VRH                     00001631755111026800
91220630000BUKOV VRH NAD VISOKIM         00001768780811027482
90480080000BUKOVA GORA                   00001628206511026966
90570070000BUKOVCA                       00001628821711027814
91680020000BUKOVCI                       00001630544821428019
90850420001BUKOVÈE                       00001622477410119103
90230300001BUKOVÈEVA CESTA               00001618320210091527
90230430004BUKOVÈEVA ULICA               00001618414410091993
90080150001BUKOVÈEVA ULICA               00001621645310113059
91340080000BUKOVEC                       00001629339311027628
91130060000BUKOVEC                       00001631396311027393
91040080000BUKOVEC PRI POLJANAH          00001630946011027296
90390110000BUKOVICA                      00001627672311026915
91220070000BUKOVICA                      00001631756011027482
91040090000BUKOVICA                      00001630947811027296
92010010000BUKOVICA                      00001629904924063453
91940020000BUKOVICA PRI LITIJI           00001629055621428264
91380010000BUKOVICA PRI VODICAH          00001629267211027644
90940030000BUKOVJE                       00001630459011027229
90590040002BUKOVJE                       00001924566710107857
90250250000BUKOVJE                       00002078526811026788
90090150000BUKOVJE                       00001626804611026605
91200080000BUKOVJE PRI SLIVNICI          00001631622911027466
91240120000BUKOVJE V BABNI GORI          00001631961911027512
91440030000BUKOVLJE                      00001631531111027687
90780040000BUKOVNICA                     00001629758511027130
90140010000BUKOVO                        00001627902111026656
90250010000BUKOVSKA VAS                  00001627524711026788
91280030000BUKOVSKI VRH                  00001632152411027563
91220080000BUKOVŠÈICA                    00001631757811027482
91040640001BUKOVŠKA ULICA                00001623701910128765
90110020000BUKOVŽLAK                     00001626914011026621
91880020000BUNÈANI                       00001629535321427977
90500410014BURLINOVA ULICA               00001619505710101743
90610110090BURNIKOVA ULICA               00001620790010110084
90090160000BUŠEÈA VAS                    00001626805411026605
91570010000BUŠINEC                       00001630026821427721
90730090000BUŠINJA VAS                   00001629627911027903
90210050000BUTAJNOVA                     00001629340711026745
90500150000BUTARI                        00001628401711027776
90170110000BUTORAJ                       00001627185311026699
90170140003BUTORAJSKA CESTA              00001617973610088828
90500870002BUŽARJI                       00001619703310102081
90580250001CAFOVA ULICA                  00001613502010107229
92040050002CAFOVA ULICA                  00001611717010107105
90960160009CAFOVA ULICA                  00001623099510125189
90980020002CAFOVA ULICA                  00002424362110147484
90700200042CAFOVA ULICA                  00001625465710147719
92130010003CAHOVA ULICA                  00001619469710101310
90130080000CAJNARJE                      00001627042311026648
90400040006CANKARJEV DREVORED            00001618914610097665
90010010002CANKARJEV TRG                 00001617284710083931
91420680001CANKARJEV TRG                 00001625129110146143
91400190002CANKARJEV TRG                 00001625018010145341
91220510002CANKARJEV TRG                 00001624361210137918
90610110091CANKARJEV VRH                 00001621206710110084
90430430001CANKARJEVA CESTA              00001619319410098521
90730370005CANKARJEVA CESTA              00001621815410114578
90030010003CANKARJEVA CESTA              00001623376510126533
90610110092CANKARJEVA CESTA              00001620092110110084
90600650005CANKARJEVA CESTA              00001090642310108969
90630340004CANKARJEVA CESTA              00001621664010113580
90640090003CANKARJEVA CESTA              00001621743310114179
90290060002CANKARJEVA CESTA              00001618472110092752
90541380004CANKARJEVA CESTA              00001545224210105234
91260090002CANKARJEVA CESTA              00001624775810144949
91310300003CANKARJEVA CESTA              00001624742110144523
91330240005CANKARJEVA CESTA              00001624805310144965
91090440002CANKARJEVA POT                00002000912810090016
91240660003CANKARJEVA ULICA              00001634104510139945
90540850003CANKARJEVA ULICA              00001545121110104653
91020340003CANKARJEVA ULICA              00001623511310127157
91000140002CANKARJEVA ULICA              00001618534510093317
91301880002CANKARJEVA ULICA              00001624695610143861
91900380006CANKARJEVA ULICA              00001625178010147310
91280600006CANKARJEVA ULICA              00001624549610141478
91880030002CANKARJEVA ULICA              00001621720410113873
91860010005CANKARJEVA ULICA              00001618396210091900
91360180003CANKARJEVA ULICA              00001617327410084482
91060240003CANKARJEVA ULICA              00001624455410139619
91100810002CANKARJEVA ULICA              00001623729910130034
91110480004CANKARJEVA ULICA              00001623818010131855
91120120002CANKARJEVA ULICA              00001623904610132525
91440200004CANKARJEVA ULICA              00001624261610134986
91130750003CANKARJEVA ULICA              00001624029010133483
91130870005CANKARJEVA ULICA              00001624080010133629
91480010003CANKARJEVA ULICA              00001900289610106940
91131230003CANKARJEVA ULICA              00001624164410134013
90720030004CANKARJEVA ULICA              00001618194310091195
90110030017CANKARJEVA ULICA              00001617526910085942
90090120008CANKARJEVA ULICA              00001617374610084784
90360090004CANKARJEVA ULICA              00001618790910096405
90020010001CANKARJEVA ULICA              00001621961410115531
90380150007CANKARJEVA ULICA              00001618866210097096
90570550003CANKARJEVA ULICA              00001611470710106494
90580250002CANKARJEVA ULICA              00001613532110107229
90700200043CANKARJEVA ULICA              00001625466510147719
90590170001CANKARJEVA ULICA              00001619721110108055
91200920002CANKARJEVA ULICA              00001624321310135982
90170140004CANKARJEVA ULICA              00001618011410088828
90500410015CANKARJEVA ULICA              00001619506510101743
90940210001CANKARJEVA ULICA              00001622998910123488
90960160010CANKARJEVA ULICA              00001623100210125189
90230070003CANKARJEVA ULICA              00001618042410090636
90520140007CANKARJEVA ULICA              00001247866610102774
90851320011CANKARJEVA ULICA              00001622520710120438
90230100008CANKARJEVA ULICA              00001618070010090695
90480470008CANKARJEVA ULICA              00001619377110099943
90800060005CANKARJEVA ULICA              00001622053110116368
90800090001CANKARJEVA ULICA              00001622149010116627
90810030002CANKARJEVA ULICA              00001623310210126240
90840260005CANKARJEVA ULICA              00001622275510117801
92040050003CANKARJEVA ULICA              00001611718810107105
91400180002CANKARJEVO NABREŽJE           00001625001510145333
90610110093CANKARJEVO NABREŽJE           00001620093010110084
90900060008CANKARJEVO NABREŽJE           00001622864810123003
91520000000CANKOVA                       00002142767500000000
91520010000CANKOVA                       00001629759321427675
90680230020CAPUDROVA ULICA               00001784517910091144
90610110094CARJA DUŠANA ULICA            00001619795510110084
90360090005CARL JAKOBA ULICA             00001618791710096405
90500410016CARPACCIOV TRG                00001619507310101743
90130090003CASERMANOVA ULICA             00001617927210087287
90010010003CEBEJEVA ULICA                00001617285510083931
90851320012CEGELNICA                     00001622588610120438
90820020000CEGELNICA                     00001628502111027946
90070090000CEGLO                         00001629905711026583
90400040007CEGNARJEVA ULICA              00001618915410097665
90610110095CELARÈEVA ULICA               00001621488410110084
90110030018CELESTINOVA ULICA             00001617527710085942
90610110096CELESTINOVA ULICA             00001620065410110084
90700030000CELESTRINA                    00001632816211027881
90540190000CELINE                        00001628631111026982
90110000000CELJE                         00001102662100000000
90110030000CELJE                         00001008594211026621
91140360002CELJSKA CESTA                 00001624207110134692
91330240006CELJSKA CESTA                 00001624806110144965
91900380007CELJSKA CESTA                 00001625179810147310
91070050001CELJSKA CESTA                 00001678608010139627
91060240004CELJSKA CESTA                 00001624484810139619
91120120003CELJSKA CESTA                 00001623905410132525
91240660004CELJSKA CESTA                 00001634106110139945
91390610005CELJSKA CESTA                 00001617876410086981
90570290003CELJSKA CESTA                 00001545271410106150
90700200045CELJSKA ULICA                 00001625468110147719
90610110097CELJSKA ULICA                 00001619796310110084
90700020004CELOVŠKA CESTA                00001625242510147379
90740030002CELOVŠKA CESTA                00001623586510127785
90610110098CELOVŠKA CESTA                00001620094810110084
90110030019CELOVŠKA ULICA                00001617528510085942
91530030000CENKOVA                       00001628929921427683
91340090000CENTA                         00001629341511027628
90160020001CENTER                        00001623578410127637
90500160000CEPKI                         00001628402511027776
90500870003CEREJ                         00001619704110102081
90500170000CEREJ                         00001628403311027776
91340830001CEREJA                        00002380478610113008
90090170000CERINA                        00001626806211026605
90120040000CERKLJANSKA DOBRAVA           00001628503011026630
90140020000CERKLJANSKI VRH               00001627903011026656
90120000000CERKLJE NA GORENJSKEM         00001102663000000000
90120050000CERKLJE NA GORENJSKEM         00001010255311026630
90090180000CERKLJE OB KRKI               00001626808911026605
90130000000CERKNICA                      00001102664800000000
90130090000CERKNICA                      00001008728711026648
90610110099CERKNIŠKA ULICA               00001621207510110084
90140000000CERKNO                        00001102665600000000
90140030000CERKNO                        00001009626011026656
90050010001CERKOVA ULICA                 00001624919010145058
90610110100CERKOVA ULICA                 00001619797110110084
91940440002CERKOVNIK                     00001619765310109663
91310300004CERKVENA ULICA                00001624770710144523
90590170026CERKVENI TRG                  00001923669210108055
91530040000CERKVENJAK                    00001628930221427683
91530000000CERKVENJAK                    00002142768300000000
90170120000CERKVIŠÈE                     00001627186111026699
91190040000CEROV LOG                     00001630027611027458
90851320013CEROVCI                       00001622654810120438
91200090000CEROVEC                       00001631623711027466
91100090000CEROVEC                       00001631044111027369
91570020000CEROVEC                       00001630028421427721
91060030000CEROVEC POD BOÈEM             00001631962711027326
91090070000CEROVEC PRI ÈREŠNJEVCU        00001627187011027342
91240130000CEROVEC PRI ŠMARJU            00001631963511027512
91990070000CEROVEC PRI TREBELNEM         00001632308021436470
90870030000CEROVEC STANKA VRAZA          00001630363111027172
91940030000CEROVICA                      00001629056421428264
90320050000CEROVO                        00001627673111026869
91180010000CERŠAK                        00001014831611027440
91180010001CERŠAK                        00001626526810148316
90610110101CERUTOVA ULICA                00001620431510110084
90851320014CESARJEVA ULICA               00001626720110120438
91300190000CESTA                         00001632309811027580
90010060000CESTA                         00001626725211026516
90540200000CESTA                         00001628632011026982
90200020000CESTA                         00001627674011026737
90340070001CESTA ADAMA DUŠAKA            00001618739910096090
90410230001CESTA ALOJZA TRAVNA           00001619074817357808
90610110102CESTA ANDREJA BITENCA         00001620807810110084
90230300002CESTA BORCEV                  00001618322910091527
90500060002CESTA BORCEV                  00001619479410101352
92080020002CESTA BORCEV                  00001624965310145171
90410230002CESTA BORISA KIDRIÈA          00001619075617357808
90410220001CESTA BORISA KIDRIÈA          00001735776017357751
91420680002CESTA BORISA KIDRIÈA          00001625131310146143
91330240007CESTA BORISA KRAIGHERJA       00001624850910144965
90520140183CESTA BOŠTJANA HLADNIKA       00001751214510102774
90090120009CESTA BRATOV CERJAKOV         00001617410610084784
90090120010CESTA BRATOV MILAVCEV         00001617375410084784
91330240008CESTA BRATOV MRAVLJAKOV       00001624807010144965
90410070004CESTA BRATOV STRAŽIŠARJEV     00001619076410097827
90541380005CESTA BRATOV ZORKO            00001545226910105234
90500700001CESTA BRATSTVA                00001146369010102405
90730370006CESTA BRATSTVA IN ENOTNOSTI   00001621816210114578
90851320015CESTA BRIGAD                  00001622631910120438
90320170005CESTA CANKARJEVE BRIGADE      00001618646510094208
90610110103CESTA CENETA ŠTUPARJA         00001619966410110084
90610110104CESTA CIRILA KOSMAÈA          00001620981310110084
90410070005CESTA CIRILA TAVÈARJA         00001619077210097827
90391280001CESTA DOLENJSKEGA ODREDA      00001618703810095794
90600650006CESTA DOLENJSKEGA ODREDA      00001619756410108969
92080020003CESTA DOLOMITSKEGA ODREDA     00001624966110145171
90610110105CESTA DOLOMITSKEGA ODREDA     00001621208310110084
90320170074CESTA DR. JOŽETA PUÈNIKA      00001794164010094208
90430430002CESTA DR. TINETA ZAJCA        00001619320810098521
90600650007CESTA DUŠANA KVEDRA           00001091023410108969
90610110106CESTA DVEH CESARJEV           00001621209110110084
90210070001CESTA DVEH POTOKOV            00001621159110111366
90410070006CESTA FRANCETA PREŠERNA       00001619079910097827
91330240009CESTA FRANTIŠKA FOITA         00001624847910144965
90030010004CESTA GORENJSKEGA ODREDA      00001623377310126533
91830010002CESTA GORIŠKE FRONTE          00001622363810118166
91400190003CESTA GRADENJ                 00001625020110145341
90700270005CESTA GRAŠKE GORE             00001626255210147808
90340070002CESTA HERMANA DEBELAKA        00001618740210096090
91260090003CESTA HEROJA GAŠPERJA         00001624781210144949
91260090004CESTA HEROJA ROZMANA          00001624783910144949
91260090005CESTA HEROJA ŠERCERJA         00001624784710144949
90770190001CESTA HEROJA VASJE            00001618275310091209
91040270001CESTA I                       00001623719110129036
91330240010CESTA I                       00001624858410144965
90500190001CESTA I. ISTRSKE BRIGADE      00001619688610101492
90500640002CESTA I. ISTRSKE BRIGADE      00001619689410101999
90630340005CESTA I. SLOVENSKEGA TABORA   00001621665810113580
91330240011CESTA II                      00001624859210144965
91040270002CESTA II                      00001623720510129036
90610110107CESTA II. GRUPE ODREDOV       00001620445510110084
90110030020CESTA II. GRUPE ODREDOV       00001617759810085942
91040270003CESTA III                     00001623721310129036
91330240012CESTA III                     00001624860610144965
90541380006CESTA ILIJE GREGORIÈA         00001545227710105234
91330240013CESTA IV                      00001624861410144965
91040270004CESTA IV                      00001623722110129036
90010010004CESTA IV. PREKOMORSKE         00001617287110083931
90520140008CESTA IVA SLAVCA              00001247867410102774
90410220002CESTA IVANA CANKARJA          00001619080217357751
92080020004CESTA IVANA KAVÈNIKA          00001624967010145171
90580250039CESTA IVANA PIRHERJA          00002425367810107229
90500700002CESTA IVANA STARCA            00001146370310102405
91330240014CESTA IX                      00001624867310144965
91040270005CESTA IX                      00001623727210129036
90010010005CESTA IX. KORPUSA             00001617321510083931
90840390001CESTA IX. KORPUSA             00001622422710118441
90540090001CESTA IZGNANCEV               00001545088610103827
90520140009CESTA JAKA PLATIŠE            00001319526910102774
90120050001CESTA JANEZA BOBNARJA         00001229725410102553
90110030275CESTA JANEZA CVIRNA           00002420508810085942
90410230003CESTA JANEZA FINŽGARJA        00001619082917357808
90610111586CESTA JANEZA PORENTE          00002425921810110084
91600050012CESTA JANEZA PUHA             00002434369310147786
90130450002CESTA JOSIPA RIBIÈIÈA         00001617960410088038
90730370056CESTA JOSIPA SAVINŠKA         00002002321010114578
91900380008CESTA JOSIPA ŠIRCA            00001625206910147310
90130450003CESTA JOŽETA KRAJCA           00001617961210088038
90230320002CESTA K CERKVI                00001779943610091551
90700170001CESTA K DRAVI                 00001625378210147638
90700200046CESTA K DRAVI                 00001625469010147719
90260050002CESTA K DRAVI                 00001626474110148073
90700200694CESTA K TAMU                  00002396912210147719
90520140010CESTA KOKRŠKEGA ODREDA        00001247871210102774
91310140001CESTA KOKRŠKEGA ODREDA        00001624726010144361
90710090008CESTA KOMANDANTA STANETA      00001621044710110688
90600650008CESTA KOMANDANTA STANETA      00001619750510108969
91200920003CESTA KOZJANSKEGA ODREDA      00001624299310135982
91270120001CESTA KOZJANSKEGA ODREDA      00001617837310086850
90541380007CESTA KOZJANSKEGA ODREDA      00001545228510105234
91400180003CESTA KRIMSKEGA ODREDA        00001625003110145333
90540850004CESTA KRŠKIH ŽRTEV            00001545123810104653
91200920004CESTA LEONA DOBROTINŠKA       00001624297710135982
90610110108CESTA LJUBLJANSKE BRIGADE     00001620975910110084
91260090006CESTA LOLE RIBARJA            00001624788010144949
91790180001CESTA MAJDE ŠILC              00001623705110128811
92040050004CESTA MAKSA KAVÈIÈA           00001611719610107105
90500410017CESTA MAREŽGANSKEGA UPORA     00001619678910101743
90410070009CESTA MARŠALA TITA            00001619083710097827
91260090007CESTA MATIJE GUBCA            00001624789810144949
90500060003CESTA MED VINOGRADI           00001619483210101352
91200920005CESTA MILOŠA ZIDANŠKA         00001624304310135982
90900070004CESTA MORNARIŠKIH ODREDOV     00001622975010123011
91600040001CESTA NA AGRARNO              00001625299910147522
90680350002CESTA NA BAJER                00001784642610091438
91400180004CESTA NA BARJU                00001625002310145333
90610110109CESTA NA BELLEVUE             00001620623710110084
91060240005CESTA NA BELLEVUE             00001624485610139619
90520130002CESTA NA BELO                 00001229745910102766
91060240006CESTA NA BOÈ                  00001624486410139619
90610110110CESTA NA BOKALCE              00001621210510110084
90520130003CESTA NA BRDO                 00001229746710102766
90680470003CESTA NA BRDO                 00001784688410091829
90610110111CESTA NA BRDO                 00001621211310110084
91200920006CESTA NA BRDO                 00001624322110135982
91310130002CESTA NA BRDO                 00001632985110144353
92080020005CESTA NA BREG                 00001624968810145171
90610110112CESTA NA BRINOVEC             00001620432310110084
90610110113CESTA NA BROD                 00001619998210110084
91110480005CESTA NA BRŠLJANOVEC          00001623880510131855
90980060003CESTA NA BUKOVEC              00002423033310147760
90980020003CESTA NA BUKOVEC              00002424369910147484
91830020001CESTA NA ÈUKLJE               00001622399910118395
91100810003CESTA NA DOBRAVO              00001623730210130034
90110030021CESTA NA DOBROVO              00001617529310085942
91230110001CESTA NA DRENIK               00002393852910112206
92120010002CESTA NA FUŽINE               00001624637910143098
90570290004CESTA NA GABERNO              00001545272210106150
90680350003CESTA NA GMAJNO               00001784644210091438
92040050015CESTA NA GMAJNO               00002418786110107105
90410070010CESTA NA GOLICO               00001619084510097827
91440200006CESTA NA GORENJE              00001624262410134986
91200920060CESTA NA GORO                 00001668908410135982
91100810004CESTA NA GRAD                 00001623732910130034
91200920007CESTA NA GRAD                 00001624336110135982
90920180001CESTA NA GRAD                 00001635661110139368
90110030022CESTA NA GRAD                 00001617530710085942
92120010003CESTA NA GRADEC               00001624635210143098
90810030003CESTA NA GRADIŠÈE             00001623312910126240
90050010002CESTA NA GRIÈ                 00001624920310145058
91330240015CESTA NA GRIÈU                00001624851710144965
90770190002CESTA NA GRMAÈE               00001618288510091209
90450080001CESTA NA HAJDINO              00001623084710124930
91310130003CESTA NA HUDO                 00001632986010144353
90980020004CESTA NA JEŠENCO              00002424426110147484
91020340004CESTA NA JEZERCA              00001623512110127157
90130090004CESTA NA JEZERO               00001617906010087287
91330240016CESTA NA JEZERO               00001624808810144965
90610110114CESTA NA JEŽAH                00001620433110110084
90520140011CESTA NA KLANEC               00001247873910102774
90610110115CESTA NA KLJUÈ                00001621550310110084
91200920008CESTA NA KMETIJSKO ŠOLO       00001624301910135982
90610110116CESTA NA KOPE                 00001620434010110084
90940210002CESTA NA KREMENCO             00001622999710123488
90320170006CESTA NA KRKO                 00001618582510094208
91670030002CESTA NA KUMEN                00001626566710149142
90370050003CESTA NA KUREŠÈEK             00002398745710111692
90570290005CESTA NA LAHOMŠEK             00001545274910106150
91900380009CESTA NA LAVO                 00001625180110147310
90610110117CESTA NA LAZE                 00001620751910110084
91470170002CESTA NA LEDINICO             00001624404010138256
91110480006CESTA NA LENIVEC              00001623876710131855
90790090002CESTA NA LEPO NJIVO           00001621903710115094
91020170006CESTA NA LIPCE                00001623482610126878
90110340001CESTA NA LJUBEÈNO             00001617854310086892
90080070001CESTA NA LOG                  00001621603810112141
91310010003CESTA NA LOKO                 00001624714610144213
90610110118CESTA NA LOKO                 00001621212110110084
90500410018CESTA NA MARKOVEC             00001619639810101743
92080020006CESTA NA MELE                 00001624969610145171
90610110119CESTA NA MESARICO             00001621513910110084
90610110120CESTA NA OBRIJE               00001620320310110084
90820050001CESTA NA OKROGLO              00001428097910102928
90110030023CESTA NA OSTROŽNO             00001617736910085942
90610110121CESTA NA OZARE                00001620435810110084
91270120002CESTA NA PEÈOVJE              00001617838110086850
90140030002CESTA NA PLUŽNE               00001618765810096260
91110480076CESTA NA POLANE               00001725890710131855
90610110122CESTA NA POLJANE              00001620808610110084
91130750004CESTA NA POLJE                00001624030310133483
91710130001CESTA NA POLJE                00001623994110133386
92080020007CESTA NA POLJE                00001624970010145171
91400180005CESTA NA POLJU                00001625004010145333
90391280002CESTA NA POLŽEVO              00001618704610095794
90080010004CESTA NA POSTAJO              00001621125710111242
90610110123CESTA NA PREVOJE              00001620809410110084
90810030004CESTA NA PRIMOŽ               00001623313710126240
92130010004CESTA NA PRISOJO              00001619457310101310
90040020002CESTA NA RAVNE                00001623450810126568
90540090002CESTA NA RIBNIK               00001545099110103827
91200920009CESTA NA RIFNIK               00001624337010135982
90500640003CESTA NA RIŽANO               00001619690810101999
91440200007CESTA NA ROGLO                00001624263210134986
91370080002CESTA NA ROGLO                00001656665910134919
91900290001CESTA NA ROJE                 00002121454010147034
90790090003CESTA NA ROŽNIK               00001621904510115094
90610110124CESTA NA ROŽNIK               00001621213010110084
90520130004CESTA NA RUPO                 00001229747510102766
90520140012CESTA NA RUPO                 00001229748310102774
90710090009CESTA NA SENICO               00001621046310110688
90700140001CESTA NA SREDNJE              00001625337510147573
90290060003CESTA NA STADION              00001618499310092752
90480470009CESTA NA STADION              00001619378010099943
91240660005CESTA NA SV. ROK              00001634108810139945
91270120003CESTA NA SVETINO              00001617839010086850
90570290006CESTA NA SVETINO              00001545249810106150
90710090010CESTA NA SVETJE               00001621047110110688
91120120004CESTA NA ŠTIBUHU              00001623963110132525
90480470010CESTA NA TRATO                00001619397610099943
91040640002CESTA NA UGAR                 00001623663210128765
90610110125CESTA NA URH                  00001620436610110084
90630340006CESTA NA VILO                 00001621666610113580
91900380010CESTA NA VRBJE                00001625181010147310
91230050003CESTA NA VRH                  00002417500610111617
90790090004CESTA NA VRHE                 00001621905310115094
90610110126CESTA NA VRHOVCE              00001621214810110084
91330240018CESTA NA VRTAÈE               00001624856810144965
91420240002CESTA NA ZLATO POLJE          00001625113510145643
91900290002CESTA NA ŽAGO                 00002121456610147034
90500640004CESTA NA ŽANEJ                00001619691610101999
90700140002CESTA NA ŽAVCERJA             00001625338310147573
91790180002CESTA NOTRANJSKEGA ODREDA     00001623706010128811
90650450001CESTA NOTRANJSKEGA ODREDA     00001617966310088178
91230090003CESTA OB BARJU                00001621178810111943
91230150004CESTA OB BARJU                00001621179610112893
91230150029CESTA OB BREGU                00002428268610112893
90540870002CESTA OB GAJU                 00001545196310104670
91600090001CESTA OB GRAMOZNICI           00001626377010147956
91390610006CESTA OB HUDINJI              00001617877210086981
90700500001CESTA OB LIPI                 00001626514410148294
92080020008CESTA OB POTOKU               00001624971810145171
90810030005CESTA OB POTOKU               00001623315310126240
91130220002CESTA OB RIBNIKU              00001623976310132916
91600090002CESTA OB RIBNIKU              00001626378810147956
91600020001CESTA OB RIBNIKU              00001625260310147425
90440050002CESTA OB SOÈI                 00001622180510117232
90710090011CESTA OB SORI                 00001621048010110688
90710090012CESTA OB ŽELEZNICI            00001621049810110688
91900380011CESTA OB ŽELEZNICI            00001625207710147310
90390320028CESTA OBÈINE HIRSCHAID        00001793584410094267
90140030003CESTA OF                      00001618766610096260
91190460001CESTA OKTOBRSKIH ŽRTEV        00001622707210121299
91290140003CESTA OSVOBODILNE FRONTE      00001624633610141800
92080020009CESTA OSVOBODILNE FRONTE      00001624972610145171
90700200047CESTA OSVOBODILNE FRONTE      00001625470310147719
91420680003CESTA OTONA ŽUPANÈIÈA         00001625132110146143
91060240007CESTA PADLIH AKTIVISTOV NOV   00001624487210139619
90340070003CESTA PADLIH BORCEV           00001618743710096090
90340160001CESTA PADLIH BORCEV           00001618744510096197
90230350012CESTA PETRA MAJDIÈA           00001783736210091730
90230340008CESTA PETRA MAJDIÈA           00001783724910091667
91140360003CESTA POD GORO                00001624208010134692
90050010003CESTA POD GORO                00001624921110145058
91440200008CESTA POD HRIBOM              00001624265910134986
91330240019CESTA POD PARKOM              00001624853310144965
91200920010CESTA POD RIFNIKOM            00001624335310135982
90130090005CESTA POD SLIVNICO            00001617907810087287
90130450011CESTA POD SRNJAKOM            00001617949310088038
92080020010CESTA POD STRMCO              00001624973410145171
90130450004CESTA POD TIÈNICO             00001617963910088038
91830010003CESTA PREKOMORSKIH BRIGAD     00001622364610118166
90700200048CESTA PROLETARSKIH BRIGAD     00001625471110147719
90540090003CESTA PRVIH BORCEV            00001545089410103827
90090120011CESTA PRVIH BORCEV            00001617376210084784
90900060009CESTA RABSKIH ŽRTEV           00001622939310123003
90900070005CESTA RABSKIH ŽRTEV           00001622940710123011
90230300003CESTA RADOMELJSKE ÈETE        00001618323710091527
90410070011CESTA REVOLUCIJE              00001619085310097827
90520140184CESTA RUDIJA ŠELIGA           00001751216110102774
91330240020CESTA SIMONA BLATNIKA         00001624900910144965
90410230004CESTA SLAVKA LIKOVIÈA         00001619086117357808
90610110127CESTA SLOV. KMEÈKIH UPOROV    00001620304110110084
90900020002CESTA SOLINARJEV              00001622844310122961
90520140013CESTA STANETA ŽAGARJA         00001247874710102774
91310300005CESTA STE MARIE AUX MINES     00001624745610144523
91310010004CESTA STE MARIE AUX MINES     00001624744810144213
90680470004CESTA SV. VIDA                00001784690610091829
91020340005CESTA SVOBODE                 00001623513010127157
90090120012CESTA SVOBODE                 00001617455610084784
90030010005CESTA SVOBODE                 00001623378110126533
90610110128CESTA ŠPANSKIH BORCEV         00001620437410110084
90391280003CESTA TALCEV                  00001618705410095794
90710090013CESTA TALCEV                  00001621050110110688
91390610007CESTA TALCEV                  00001617879910086981
91220510003CESTA TALCEV                  00001624363910137918
91260090008CESTA TALCEV                  00001624776610144949
91330240021CESTA TALCEV                  00001624910610144965
90980100001CESTA TALCEV                  00001626272210147905
90640090004CESTA TALCEV                  00001621744110114179
90520140014CESTA TALCEV                  00001247875510102774
90230100009CESTA TALCEV                  00001618071810090695
90410220003CESTA TALCEV                  00001619087017357751
91440200009CESTA TALCEV                  00001624266710134986
91290140004CESTA TONÈKE ÈEÈ              00001624591710141800
90320170007CESTA TONETA KRALJA           00001618652010094208
90410230005CESTA TONETA TOMŠIÈA          00001735781617357808
90410070014CESTA TONETA TOMŠIÈA          00001619088810097827
90430430003CESTA TREH TALCEV             00001619321610098521
90610110129CESTA URŠKE ZATLERJEVE        00001620012310110084
91040270006CESTA V                       00001623723010129036
91330240023CESTA V                       00001624862210144965
91330240022CESTA V BEVÈE                 00001624915710144965
90710090014CESTA V BONOVEC               00001621045510110688
91090440003CESTA V BUKOVJE               00002000914410090016
90110120001CESTA V CELJE                 00001617811010086353
90570290007CESTA V DEBRO                 00001545275710106150
91690030005CESTA V DOBROVCE              00001626184010147751
90230320003CESTA V DOLENJE               00001779945210091551
90130090006CESTA V DOLENJO VAS           00001617929910087287
90610110130CESTA V DVOR                  00001620810810110084
90190050026CESTA V GABROVO NASELJE       00001726080410130620
91730020002CESTA V GAJ                   00002124129610146216
90610110131CESTA V GAMELJNE              00001620982110110084
90610110132CESTA V GORICE                00001621215610110084
90080150002CESTA V GORICE                00001621216410113059
91690020001CESTA V HOTINJE               00001625292110147468
92080020011CESTA V HRASTJE               00001624974210145171
90610110133CESTA V HRASTJE               00001620438210110084
90610110134CESTA V HRIB                  00001620811610110084
90400050001CESTA V HRIB                  00001619052710097673
90400050002CESTA V JAGODJE               00001619026810097673
90610110135CESTA V KLEÈE                 00001620625310110084
90610110136CESTA V KOSTANJ               00001620440410110084
90610170001CESTA V KRESNICE              00001620600810110319
90110030024CESTA V LAHOVNO               00001617531510085942
90110030025CESTA V LAŠKO                 00001617532310085942
90610110137CESTA V LEGARICO              00001621551110110084
92080020012CESTA V LIPOVCE               00001624976910145171
90080010005CESTA V LOG                   00001621126510111242
91080020002CESTA V LOG                   00001626698110149339
90480170001CESTA V LOG                   00001619367410099595
90540090004CESTA V LOG                   00001545090810103827
90790090005CESTA V LOKE                  00001621906110115094
90110030026CESTA V LOKROVEC              00001617533110085942
90030010006CESTA V MEGRE                 00001623379010126533
90480470011CESTA V MESTNI LOG            00001619396810099943
90610110138CESTA V MESTNI LOG            00001621217210110084
91690040023CESTA V MIKLAVŽ               00002429815910148006
90450080002CESTA V NJIVERCE              00001623085510124930
91110480007CESTA V OGRADE                00001623883010131855
90610110139CESTA V PEÈALE                00001619967210110084
90610110140CESTA V PODBORŠT              00001619969910110084
90120050002CESTA V POLICO                00001229728910102553
90400040008CESTA V PREGAVOR              00001619019510097665
90130450005CESTA V PRETRŽJE              00001617964710088038
90610110141CESTA V PROD                  00001620441210110084
90530060001CESTA V RADOVNO               00001619182510097878
90980020005CESTA V RANÈE                 00002424428810147484
90620020001CESTA V RASTKE                00001621887110115043
90570290039CESTA V REÈICO                00001691216610106150
91690030006CESTA V ROGOZO                00001626185810147751
90700150001CESTA V ROŠPOH                00001625343010147590
90410220004CESTA V ROVTE                 00001735777817357751
90410230006CESTA V ROVTE                 00001619089617357808
90610110142CESTA V ROŽNO DOLINO          00001621219910110084
90620020002CESTA V SAVINO                00001621888010115043
91600090003CESTA V SKOKE                 00001626379610147956
90940210003CESTA V STARO VAS             00001623054510123488
90610110143CESTA V ŠMARTNO               00001620443910110084
91390610008CESTA V ŠMARTNO               00001617880210086981
90110120002CESTA V TEHARJE               00001617812810086353
91390610009CESTA V TOMAŽ                 00001617882910086981
90110030027CESTA V TRNOVLJE              00001617534010085942
90030010007CESTA V VINTGAR               00001623380310126533
90110340002CESTA V ZADOBROVO             00001617855110086892
90610110144CESTA V ZAJÈJO DOBRAVO        00001620444710110084
90190050027CESTA V ZELENI GAJ            00001726083910130620
90610110145CESTA V ZELENI LOG            00001621220210110084
90610110146CESTA V ZGORNJI LOG           00001621222910110084
91140210001CESTA V ŽELEZNIK              00001656852010134463
90710090015CESTA V ŽLEBE                 00001621051010110688
91200920057CESTA VALENTINA OROŽNA        00001624329910135982
90340050001CESTA VDV-BRIGADE             00001618723210096073
91040270007CESTA VI                      00001623724810129036
91330240024CESTA VI                      00001624864910144965
91330240025CESTA VII                     00001624865710144965
91040270008CESTA VII                     00001623725610129036
91040270009CESTA VIII                    00001623726410129036
91330240026CESTA VIII                    00001624866510144965
90410220005CESTA VIKTORJA SVETINA        00001619090017357751
91301880048CESTA VILME BUKOVEC           00002024106310143861
90610110147CESTA VSTAJE                  00001620983010110084
91670030003CESTA VSTAJE                  00001626554310149142
91330240027CESTA X                       00001624868110144965
91270120004CESTA XIV. DIVIZIJE           00001617840310086850
90700200049CESTA XIV. DIVIZIJE           00001625472010147719
91130870007CESTA XIV. DIVIZIJE           00001624119910133629
91330240028CESTA XIV DIVIZIJE            00001624810010144965
90730370007CESTA XV. BRIGADE             00001621849910114578
90990150001CESTA ZA GRADOM               00001605688010106451
90600650009CESTA ZASAVSKEGA BATALJONA    00001090854010108969
91420680004CESTA ZMAGE                   00001625133010146143
91130870008CESTA ZMAGE                   00001624122910133629
90700200050CESTA ZMAGE                   00001625473810147719
90500410019CESTA ZORE PERELLO-GODINA     00001619684310101743
91900380012CESTA ŽALSKEGA TABORA         00001625182810147310
90410070017CESTA ŽELEZARJEV              00001619091810097827
90410070018CESTA 1. MAJA                 00001619073010097827
90520140015CESTA 1. MAJA                 00001247868210102774
90541380008CESTA 1. MAJA                 00001545229310105234
90340070004CESTA 1. MAJA                 00001618742910096090
90610110148CESTA 13. JULIJA              00001620446310110084
91420240003CESTA 15. APRILA              00001625114310145643
90840260006CESTA 15. SEPTEMBRA           00001622276310117801
91360180004CESTA 18. APRILA              00001617328210084482
90650240001CESTA 19. OKTOBRA             00001617939610087732
90390320001CESTA 2. GRUPE ODREDOV        00001618654610094267
91180150001CESTA 2. JULIJA               00001899244210148855
90500700003CESTA 2.OKTOBRA               00001146371110102405
91420110001CESTA 20. JULIJA              00001625095310145490
91420680005CESTA 20. JULIJA              00001625096110146143
90610110149CESTA 24. JUNIJA              00001619970210110084
90840260007CESTA 25. JUNIJA              00001622278010117801
90840160004CESTA 25. JUNIJA              00001622277110117607
90610110150CESTA 25 TALCEV               00001620813210110084
90610110151CESTA 27. APRILA              00001620271110110084
90541380009CESTA 3. JULIJA               00001545246310105234
90340070005CESTA 3. JULIJA               00001618737210096090
90610110152CESTA 30. AVGUSTA             00001620447110110084
90260050003CESTA 4. JULIJA               00001626475010148073
90540850005CESTA 4. JULIJA               00001545122010104653
90130090007CESTA 4. MAJA                 00001617905110087287
90640090005CESTA 5. MAJA                 00001621804910114179
90010010006CESTA 5. MAJA                 00001617286310083931
91400190004CESTA 6. MAJA                 00001625019810145341
90210070002CESTA 7. MAJA                 00001621160510111366
90960160011CESTA 8. AVGUSTA              00001623296310125189
92080020013CESTA 8. MAJA                 00001624977710145171
91420680006CESTA 9. AVGUSTA              00001625130510146143
90730370008CESTA 9. MAJA                 00001621858810114578
90980060004CESTARSKA POT                 00002423035010147760
91070050002CESTE                         00001678610110139627
91060040000CESTE                         00001631964311027326
90400020000CETORE                        00001628042911026923
90630110000CEZANJEVCI                    00001629536111027857
91130070000CEZLAK                        00001631397111027393
90610110153CHENGDUJSKA CESTA             00001620448010110084
90610111565CHOPINOV PREHOD               00002421433810110084
90520140168CICIBANOVA ULICA              00001650632010102774
90110030028CIGALETOVA ULICA              00001617535810085942
90610110154CIGALETOVA ULICA              00001620095610110084
90260010000CIGLENCE                      00001632818911026796
90260050004CIGLENŠKA CESTA               00001626476810148073
90391280004CIGLERJEVA ULICA              00001618706210095794
90610110155CIGLERJEVA ULICA              00001620306810110084
91130080000CIGONCA                       00001631398011027393
91990080000CIKAVA                        00001632310121436470
90320060000CIKAVA                        00001627675811026869
90500640005CIKUTI                        00001619692410101999
90610110156CILENŠKOVA ULICA              00001620321110110084
90700200051CILENŠKOVA ULICA              00001625474610147719
90610110157CIMERMANOVA ULICA             00001620449810110084
90610110158CIMPERMANOVA ULICA            00001620096410110084
90110030029CINKARNIŠKA POT               00001617536610085942
90800060006CIRIL METODOVA ULICA          00001622058210116368
90960160012CIRIL-METODOV DREVORED        00001623102910125189
90610110159CIRIL-METODOV TRG             00001620097210110084
90290060004CIRIL-METODOVA CESTA          00001618473010092752
90700200052CIRIL-METODOVA ULICA          00001625475410147719
90520140016CIRILOVA ULICA                00001247876310102774
